:400000000010002011000000310500003105000080B500AF00F096FA80B500AF124B124A12688021C9020A431A60182000F0ACFB0D4B0D4A12680D490A401A600C4B0D4AA5
:400040001A600D4B10221A600C4B822212061A60054B00221A600A4B0A4A1A600A4B00221A60BD4680BDC04600010B40FFFFFBFF04010B40060000801C02024008010B4061
:4000800000000240080000800C020B4080B582B000AF72B6FB1D00221A7023E0FB1D1A78131C5B009B185B003C4A9B183B603B681A78597809020A43997809040A43DB78E6
:4000C0001B061343191C3B681A795B791B0213439BB2081C191C00F0B3FAFB1D1A78FB1D01321A70FB1D1B78012BD7D92C4A2D4B101C191C00F0B4FA2B4B60221A602B4BB9
:40010000EE2212021A602A4B992212041A60294B8022D2021A60284B992212041A60274B992212041A60264B992212041A60254A244B1B78DBB202210B43DBB21370224ADB
:40014000214B1B78DBB23C218B43DBB214210B43DBB213701B4A1B4B1B78DBB216210B43DBB21370194B02221A60194B02221A60184BDB2252001A60174B10221A60174B88
:40018000174A1A60174BD82212011A60FFF744FF00F0A6FABD4602B080BDC046081200001412000028120000000001400C00014000500F4008500F4010500F4020500F40FE
:4001C00030500F4000700F4001700F400000044018000440080104400002044008020440B66100000803044010B5064C2378002B07D1054B002B02D0044800E000BF0123B9
:40020000237010BD48010020000000000412000008B5084B002B03D00748084900E000BF07480368002B00D108BD064B002BFBD09847F9E700000000041200004C0100208E
:40024000C80000200000000080B582B000AF322000F014FC62B600F06FFC031C5A425341DBB2181C00F042FC322000F007FC00F063FC031C5A425341DBB2181C00F036FCB7
:40028000642000F0FBFB00F08BFC031C5A425341DBB2181C00F05EFC322000F0EFFB00F07FFC031C5A425341DBB2181C00F052FC322000F0E3FB00F0A5FC031C5A4253411E
:4002C000DBB2181C00F07AFC322000F0D7FB00F099FC031C5A425341DBB2181C00F06EFC322000F0CBFB00F08DFC031C5A425341DBB2181C00F062FC322000F0BFFB00F009
:4003000081FC031C5A425341DBB2181C00F056FC322000F0B3FB00F043FC031C5A425341DBB2181C00F016FC322000F0A7FB00F037FC031C5A425341DBB2181C00F00AFCB0
:40034000322000F09BFB00F0F7FB031C5A425341DBB2181C00F0CAFB322000F08FFB00F0EBFB031C5A425341DBB2181C00F0BEFB322000F083FB00F0C3FC00F0C9FD32202C
:4003800000F07CFB002000F0D1FD031C7B60322000F074FB7B68624A934244DD012000F0A5FB012000F0D6FB012000F007FC002000F036FC012000F057FC012000F07AFCF4
:4003C000642000F05BFB002000F0B8F9FA2000F055FB012000F0B2F9FA2000F04FFB002000F0ACF9FA2000F049FB012000F0A6F9FA2000F043FB002000F0A0F9FA2000F05A
:400400003DFB012000F09AF909E0002000F08EFD031C7B60FA235B00181C00F02FFB7B683F4A9342F1DC7A68C8239B009A4243DD7B683C4A93423FDC012000F057FB01204D
:4004400000F088FB002000F0B9FB012000F0E8FB002000F009FC002000F02CFC642000F00DFB002000F06AF9FA2000F007FB012000F064F9FA2000F001FB002000F05EF92E
:40048000FA2000F0FBFA012000F058F9FA2000F0F5FA08E0002000F049FD031C7B60224B181C00F0EBFA7A68C8239B009A4203DD7B681C4A9342EDDD7B681C4A93422EDC00
:4004C000012000F013FB002000F044FB002000F075FB002000F0A4FB002000F0C5FB002000F0E8FB642000F0C9FA002000F026F9FA2000F0C3FA012000F020F9FA2000F03B
:40050000BDFA08E0002000F011FD031C7B60064B181C00F0B3FA7B68044A9342F2DD2EE7A4060000A2060000260200001E03000080B500AF00F032FE031C1B680C2B00D1AF
:40054000FEE7FEE780B586B000AF224B7B61224B3B61204B7B6135E03B691B68FB603B695B68BB603B699B683B6000237B600CE0FB681A68BB681A60BB680433BB60FB685F
:400580000433FB607B6804337B607A683B689A42EED13B69DB683B6000237B6008E0BB6800221A60BB680433BB607B6804337B607A683B689A42F2D13B6910333B617B6978
:4005C000013B7B617B69002BC6D100F0EDFDFFF73BFEFEE7010000009412000080B582B000AF00237B600FE07B68032B04D8104B7A689200D35800E00E4B0F4A79688900C2
:400600008B507B6801337B607B682F2BECD9FFF73DFD0A4B00221A608023DB058022D205126801210A431A60BD4602B080BDC046000000003105000000000020C00000203D
:4006400080B582B000AF786039607A683B68101C00211A1C00F0CEFDBD4602B080BDC04680B586B000AF7860396000233B6100237B612FE07B699B007A68D3181B68BB60F6
:400680000F23FB18BA681A70BB68FF229343BB6018E03B695B003A68D3181B781A1CBB68D318191C3B695B003A68D3185B780B703B6901333B610F23FB181A780F23FB181A
:4006C000013A1A700F23FB181B78002BE1D17B6901337B617B69042BCCD9BD4606B080BD80B500AF044B8022D2021A60012000F005F8BD4680BDC04600031A4080B584B0A1
:4007000000AF021CFB1D1A700B4B1B68FB60FB1D1B78002B05D0FB68802212061343FB6003E0FB685B005B08FB60034BFA681A60BD4604B080BDC04680031A4080B584B0D4
:4007400000AF021CFB1D1A700E4B1B68DAB20F23FB1810218A431A70FB1D1B781B01DBB210221340D9B20F23FB180F22BA1812780A431A70034B0F22BA1812781A60BD4670
:4007800004B080BD0002044090B585B000AF78600C23FC1800F006FC031C23707B68022B00D8B4E07B68302B00D9B0E05E4B1B78DBB21A1E7B689A420AD35C4A0F23FB186F
:4007C00012781A705A4A0E23FB1812781A703FE0584B1B78DBB21A1E7B689A420AD3564A0F23FB1812781A70544A0E23FB1812781A702DE0524B1B78DBB21A1E7B689A4283
:400800000AD3504A0F23FB1812781A704E4A0E23FB1812781A701BE04C4B1B78DBB21A1E7B689A420AD34A4A0F23FB1812781A70484A0E23FB1812781A7009E0464A0F23F0
:40084000FB1812781A70454A0E23FB1812781A707B68DA1E0B23FB1841498A5C1A700B23FB181B782F2B0DD97B682A2B0AD93D4B19221A60052000F08BFB0D23FB181922CF
:400880001A7007E0374B1B68DAB20D23FB183F210A401A700B23FA180D23FB1812781B789A4208D22F4B7A68033A2D498A5C1A60052000F06DFB7B68284A9A180A23FB1836
:4008C00012781A70284B0A22BA1812781A60274B0F22BA1812781A60254B0E22BA1812781A60052000F0EEF80B23FA180D23FB1812781B789A4209D91A4B7A68033A184942
:400900008A5C1A60052000F043FB03E002E0002000F0AAF80C23FB181B78181C00F046FBBD4605B090BDC046C0F1FF0FC1F1FF0FC2F1FF0FC3F1FF0FC4F1FF0FC5F1FF0FBF
:40094000C6F1FF0FC7F1FF0FC8F1FF0FC9F1FF0FCAF1FF0FCBF1FF0FCCF1FF0FCDF1FF0F3C1200002CFF0B4028FF0B401CFF0B4020FF0B4080B584B000AF021C3960FB1D46
:400980001A7080239B05FB60FB1D1B781F2B02D9002000F069F8FB1D1B7810339B00FA68D3181B68BB60FB1D1B7810339B00FA68D3183A681A60BB68181CBD4604B080BD1D
:4009C00090B587B000AF021CFB1D1A70BB1D0A1C1A70BB1D1B78032B02D9002000F044F8FB1D1B781F2B02D9002000F03DF8FB1D1B7803221340DB0006337B611323FC1852
:400A000000F0D0FA031C2370FB1D1B789B08DBB29B00144A944663441B68FB607B6903229A40131CDA43FB681340FB60BB1D1A787B699A40131CFA681343FB60FB1D1B78C2
:400A40009B08DBB29B00074A94466344FA681A601323FB181B78181C00F0A8FABD4607B090BDC04600E400E080B582B000AF021CFB1D1A7001BEBD4602B080BD80B582B09C
:400A800000AF786009E00C4B1B68181C00F080FA7B680A4A944663447B607A6880231B029A42F0D8064B1B687A685343181C00F06FFABD4602B080BDD80000200080FFFF34
:400AC000D000002080B582B000AF021CBB1D1A80BB1D1B88044A12785343181C00F058FABD4602B080BDC046D400002080B584B000AF021CFB1D1A700E4B1B68DAB20F23A3
:400B0000FB1804218A431A70FB1D1B789B00DBB204221340D9B20F23FB180F22BA1812780A431A70034B0F22BA1812781A60BD4604B080BD0001044080B500AF044B1B6862
:400B4000042213409B08DBB2181CBD4680BDC0460401044080B584B000AF021CFB1D1A700E4B1B68DAB20F23FB1802218A431A70FB1D1B78DB18DBB202221340D9B20F23AB
:400B8000FB180F22BA1812780A431A70034B0F22BA1812781A60BD4604B080BD0001044080B500AF044B1B68022213405B08DBB2181CBD4680BDC0460401044080B584B0E7
:400BC00000AF021CFB1D1A700D4B1B68DAB20F23FB1801218A431A70FB1D1B7801221340D9B20F23FB180F22BA1812780A431A70034B0F22BA1812781A60BD4604B080BDC3
:400C00000001044080B500AF044B1B68DBB201221340DBB2181CBD4680BDC0460401044080B584B000AF021CFB1D1A700D4B1B68DAB20F23FB1801218A431A70FB1D1B78BE
:400C400001221340D9B20F23FB180F22BA1812780A431A70034B0F22BA1812781A60BD4604B080BD0002044080B584B000AF021CFB1D1A700E4B1B68DAB20F23FB18022193
:400C80008A431A70FB1D1B78DB18DBB202221340D9B20F23FB180F22BA1812780A431A70034B0F22BA1812781A60BD4604B080BD0002044080B584B000AF021CFB1D1A70A0
:400CC0000E4B1B68DAB20F23FB1804218A431A70FB1D1B789B00DBB204221340D9B20F23FB180F22BA1812780A431A70034B0F22BA1812781A60BD4604B080BD00020440BC
:400D000080B500AF064B1B78002B04D100F00AF8034B01221A7000F0E7F8BD4680BDC0466401002080B584B000AF0E200321FFF747FE524B0E20191CFFF71CFE504B0122F1
:400D40001A60504B1B68002B01DA4F4900E04F494F4B4F4A12680A431A604E4B4E4A1A604E4B4F4A1A604F4B00221A604E4B4F4A1A604F4B4D4A1A604E4B4E4A1268802121
:400D800049020A431A604C4B00221A604B4B00221A604B4B01221A604A4B02221A604A4B1B687B607B68494A13407B607B68012213437B60444B7A681A600023FB6057E0E8
:400DC0000022DC239B0113407B60FB689B00404A944663447A681A6000220123134009D0354B354A1268F96801208840011C89B20A431A6000220223134009D02F4B2F4AE9
:400E00001268F96801208840011C89B20A431A60002280239B00134003D080235B00BB6002E080235B01BB60002280235B00134005D1284BFA6852000021D15204E0254B2C
:400E4000FA6852000021D152BB68234A5343234A94466344181C224900F0AEF8031C9BB219B2204BFA689200D150FB680133FB60FB68002BA4D0BD4604B080BD710F000012
:400E800020001A4080031A40700210517002005100001A4004001A408C00008018001A400000FF071C001A4010001A400200020014001A4000031A4028021A4038021A4042
:400EC00018021A40000F1A4030001A40FFFFFFDF80001A406C01002010270000E40C0000C81900006801002080B500AF074B1B68002B09DB054B054A1268802109060A43D9
:400F00001A600A20FFF7DEFDBD4680BD00001A4080B500AF044B044A1268802149020A431A60BD4680BDC04604001A4080B584B000AF78607B68002B02D00020FFF794FDD9
:400F40007B68002B09D17B689B00084A944663441B681B041B0CFB6001E00023FB60FB689BB21BB2181CBD4604B080BD80011A4080B582B000AF044B1B687B60024B7A6843
:400F80001A60BD4602B080BD10021A40000000000230800804D0C0460138FDD1C046C046C0467047EFF3108072B6704780F310887047C046C046C04603460B437FD40022C4
:400FC00043088B4274D303098B425FD3030A8B4244D3030B8B4228D3030C8B420DD3FF22090212BA030C8B4202D31212090265D0030B8B4219D300E0090AC30B8B4201D3CE
:40100000CB03C01A5241830B8B4201D38B03C01A5241430B8B4201D34B03C01A5241030B8B4201D30B03C01A5241C30A8B4201D3CB02C01A5241830A8B4201D38B02C01A3A
:401040005241430A8B4201D34B02C01A5241030A8B4201D30B02C01A5241CDD2C3098B4201D3CB01C01A524183098B4201D38B01C01A524143098B4201D34B01C01A5241FC
:4010800003098B4201D30B01C01A5241C3088B4201D3CB00C01A524183088B4201D38B00C01A524143088B4201D34B00C01A5241411A00D201465241104670475DE0CA0F74
:4010C00000D04942031000D34042534000229C4603098B422DD3030A8B4212D3FC22890112BA030A8B420CD3890192118B4208D3890192118B4204D389013AD0921100E014
:401100008909C3098B4201D3CB01C01A524183098B4201D38B01C01A524143098B4201D34B01C01A524103098B4201D30B01C01A5241C3088B4201D3CB00C01A5241830856
:401140008B4201D38B00C01A5241D9D243088B4201D34B00C01A5241411A00D20146634652415B10104601D34042002B00D54942704763465B1000D3404201B5002000F04F
:401180000BF802BD0029F8D003B5FFF715FF0EBC4243891A1847C0467047C046014B18687047C046400100200E4B70B500251E1C0D4CE41AA410A54204D0AB00F358984744
:4011C0000135F8E700F054F8084B00251E1C084CE41AA410A54204D0AB00F35898470135F8E770BD7C1200007C1200007C12000084120000031C8218934202D019700133B7
:40120000FAE770470000000000300F40000400400F40000404300F4001310F4001330F4002400F4002410F4032013E0458045F011B04AB045720D440AB20EE2003040506E1
:401240000708090A0B0C0E0F101112131415161718191B1C1D1E1F2021222325262728292A2B2E2F303132333435000043000000F8B5C046F8BC08BC9E4670471102000074
:40128000DD050000F8B5C046F8BC08BC9E467047E9010000A8120000C80000208000000028000000000000000000000000366E01C05D0000180000000000E02E0100000069
:4012C00000000000000000000000000000000000000000000000000000000000000000006C1200000000000000000000000000000000000000000000000000000000000070
:401300000000000000000000000000000000000000000000000000000000000000000000E000002000000000000000000000000000000000000000000000000000000000AD
:40134000000000000000000000000000000000000000000000000000000000000000000000000000000000000000000000000000000000000000000000000000000000006D
:40138000000000000000000000000000000000000000000000000000000000000000000000000000000000000000000000000000000000000000000000000000000000002D
:4013C00000000000000000000000000000000000000000000000000000000000000000000000000000000000000000000000000000000000000000000000000000000000ED
:4014000000000000000000000000000000000000000000000000000000000000000000000000000000000000000000000000000000000000000000000000000000000000AC
:0200000490303A
:0200000077A3E4
:0200000490402A
:200000000000000000000000000000000000000000000000000000000000000000000000E0
:0200000490501A
:0C000000000204C81193110104CE8936DF
:0200000490600A
:0100000001FE
:00000001FF